:020000040800F2
:1000000038060020A9010008C7240008A51D000823
:10001000C52400089B020008FB2600080000000021
:10002000000000000000000000000000EB240008B9
:100030009D02000800000000E9240008ED240008EB
:10004000C3010008C3010008C3010008C301000880
:10005000C3010008C3010008C3010008C301000870
:10006000C3010008C3010008C3010008C301000860
:10007000C3010008C3010008C3010008C301000850
:10008000C3010008C3010008C3010008C301000840
:10009000C3010008C3010008C3010008C301000830
:1000A000C3010008C3010008C3010008C301000820
:1000B000C3010008C3010008C3010008C301000810
:1000C000C3010008C3010008C3010008C301000800
:1000D000C3010008C3010008C3010008C3010008F0
:1000E000C3010008C3010008C3010008C3010008E0
:1000F000C3010008C3010008C3010008C3010008D0
:10010000C30100080000000000000000C301000857
:10011000C3010008C3010008C3010008C3010008AF
:10012000C3010008C3010008C3010008C30100089F
:10013000C3010008C3010008000000000000000027
:10014000C3010008C3010008C3010008000000004B
:10015000000000000000000000000000000000009F
:10016000C3010008C3010008C3010008C30100085F
:10017000C3010008C3010008C3010008C30100084F
:10018000C3010008C30100080000000000000000D7
:10019000C3010008DFF80CD000F03CF8004800472D
:1001A0001D270008380600200648804706480047FB
:1001B000FEE7FEE7FEE7FEE7FEE7FEE7FEE7FEE717
:1001C000FEE7FEE7652500089501000840EA010307
:1001D0009B0703D009E008C9121F08C0042AFAD2FD
:1001E00003E011F8013B00F8013B521EF9D27047C1
:1001F000D2B201E000F8012B491EFBD27047002269
:10020000F6E710B513460A4604461946FFF7F0FF15
:10021000204610BD064C074D06E0E06840F00103A3
:1002200094E8070098471034AC42F6D3FFF7B6FFC6
:10023000402900086029000870B5044600688168FC
:1002400001F00301012926D10168C90723D0816883
:1002500001F00D01012910D1816841F00201816096
:1002600021680320086000F01BFD05460FE000BF79
:1002700000F016FD401B022809D9606C40F0100008
:100280006064A06C40F00100A064012070BD206893
:100290008068C007ECD1002070BDFEE77047000009
:1002A000F0B5002302684FF0A04C3D4C95B01F46BE
:1002B000624501D100940DE0A24202D1CDF800C008
:1002C00008E0384D384EAA4201D1009602E0B24211
:1002D00014D1009590F84050012D12D0012580F8DE
:1002E000405095686D0752D4009DAD686D074ED49F
:1002F000624501D0A24206D12C4A05E0012015B08A
:10030000F0BD0220FBE72A4A0D6840F61F741DB3BA
:100310009568466B25F4604545EA46354E68354399
:1003200095600568AE6806F00306012E02D12D68BF
:10033000ED0731D1009DAD6805F00305012D03D116
:10034000009D2D68ED0727D10D6889680D439168E0
:10035000A1430D4395601FE0916821F460419160D5
:1003600001688D6805F00305012D02D10968C907F0
:1003700012D10099896801F00301012903D1009984
:100380000968C90708D19168A143916004E0416CF4
:1003900041F020014164012380F840701846AEE727
:1003A0000001005000040050000500500003005000
:1003B00000070050F0B595B00024009490F840205C
:1003C0002546012A19D0012780F8407003689A68F1
:1003D00052077CD44A681F26052A11D2D3F830C0B0
:1003E00002EB4202520096402CEA060C0E68964040
:1003F0004CEA060CC3F830C035E0022015B0F0BD61
:100400000A2A0FD2D3F834C0521F02EB4202520024
:1004100096402CEA060C0E6896404CEA060CC3F88F
:1004200034C020E00F2A0FD2D3F838C00A3A02EBCA
:100430004202520096402CEA060C0E6896404CEAA6
:10044000060CC3F838C00EE0D3F83CC00F3A02EBFC
:100450004202520096402CEA060C0E6896404CEA86
:10046000060CC3F83CC00268936813F00C0F4FF001
:10047000070374D1D1F800E0BEF10A0F10D39669DA
:10048000AEF10A0E0EEB4E0C03FA0CFE26EA0E0637
:10049000D1F808E00EFA0CFE46EA0E0696610FE06F
:1004A000D2F814C00EEB4E0603FA06FE2CEA0E0C30
:1004B000D1F808E00EFA06FE4CEA0E0CC2F814C0A1
:1004C00002684E69D2F80CC0CCF3C10C00E0FDE02C
:1004D0004FEA4C0C06FA0CF6D1F810E0DFF848C2EF
:1004E000BEF1010F42D0BEF1020F4DD0BEF1030F9D
:1004F00058D0BEF1040F63D0166E91F800C006F01C
:10050000F846B6EB8C6F03D1166E26F000461666E1
:100510000268566E91F800C006F0F846B6EB8C6F94
:1005200003D1566E26F0004656660268966E91F824
:1005300000C006F0F846B6EB8C6F03D1966E26F03D
:10054000004696660268D66E91F800C006F0F8463E
:10055000B6EB8C6F03D1D66E26F00046D6660268E5
:10056000966806F00306012E3AD136E0D2F860E034
:100570000EEA0C0E91F800C046EA8C664EEA060EB2
:100580004EF000461666EAE7D2F864E00EEA0C0E7A
:1005900091F800C046EA8C664EEA060E4EF0004620
:1005A0005666DCE7D2F868E00EEA0C0E91F800C05F
:1005B00046EA8C664EEA060E4EF000469666CEE798
:1005C000D2F86CE00EEA0C0E91F800C046EA8C6698
:1005D0004EEA060E4EF00046C0E71668F6077AD1DE
:1005E000CE68012E06D052F8B03F0E78B740BB431C
:1005F000136021E052F8B06F91F800C007FA0CF7D1
:100600003E4316600A680A2A0BD30668B769093A9E
:1006100002EB420293409F438B6893401F43B761B4
:100620000AE007687E69521C02EB420293409E4337
:100630008B6893401E437E6103684FF0A0473B4E9A
:10064000BB4201D0B34201D1394A00E0394A0968BE
:10065000102904D0112907D012290AD03BE0D2F882
:1006600008C04FEA0C2C08E0D2F808C04FEACC1CB6
:1006700003E0D2F808C04FEA4C2CBCF1000F2ADB93
:10068000BB420DD0B34201D100970CE02A4EDFF8F7
:10069000ACC0B34202D1CDF800C004E0634501D143
:1006A000009600E000959E6806F00306012E02D138
:1006B0001E68F6070AD1009E8EB1B66806F00306E2
:1006C000012E0CD1009E3668F60708D0416C41F02F
:1006D00020014164012480F8405020468EE6102914
:1006E00008D011291AD01229F5D1916841F480015E
:1006F0009160F0E7BB42EED1916841F40001916056
:100700000F49104A0968B1FBF2F101EB8101490080
:1007100000E0491E00910029FBD1DCE7BB42DAD1A1
:10072000916841F08071E3E700F0FF830001005021
:100730000003005000070050000400500005005066
:100740004800002040420F00F0B54FF0000695B081
:10075000040037463546009605D0606CC00648D484
:10076000606C18B133E0012015B0F0BDA5642565BB
:10077000E56484F84050204600F020F92068806845
:10078000C00024D42046FFF757FD0646606CC00623
:100790001DD4E6B9606C20F4885040F0020060641B
:1007A0002068816821F0405181602068816841F0B3
:1007B00080518160784879490068B0FBF1F000EB26
:1007C0008000400000E0401E00900028FBD120681F
:1007D0008168C90002D5806880000AD5606C20F06D
:1007E000020040F010006064A06C40F00100A064C2
:1007F0000126606CC00671D4002E6FD1206881681C
:1008000049076BD4616C21F4807141F0020161648D
:100810004FF0A04E624B704501D0984201D1614A21
:1008200000E0614ADFF884C16149704501D100935D
:100830000EE0984202D1CDF800E009E0884202D1F2
:10084000CDF800C004E0604501D1009100E00095C2
:10085000836803F00303012B02D10068C00710D1A5
:10086000009840B1806800F00300012803D100988F
:100870000068C00705D19068636820F440301843D1
:100880009060D4E902201043A26B012A02D04FF4F9
:10089000805300E00023E26943EA42331843636A6D
:1008A0003843012B0AD1D2B1626C22F0020242F02D
:1008B00020026264A26C42F00102A264E26A012A90
:1008C00037D023688B4201D063452DD14FF430716E
:1008D0004FF4E0778A420AD13A4627E052E0228D6F
:1008E000344B03EB4242024342F48030E6E74FF4DC
:1008F00080739A4201D10A4618E0BA4201D11A46E1
:1009000014E0B2F58A5F06D0B2F5845F06D0B2F586
:10091000865F06D00AE04FF4707207E04FF4A072D1
:1009200004E04FF4C07201E022F480520243206BD5
:10093000104321688A6812F00C0F0AD1CA6844F289
:1009400002039A43CA60A169626B890341EA4201CA
:1009500008432268D168184B19400143D1602069CF
:1009600001282068016B21F00F0102D1226A521E7A
:1009700011430163A564606C20F0020040F00100A7
:10098000606406E0606C20F0020040F010006064DB
:1009900001263046E8E600004800002040420F00F3
:1009A00000010050000300500007005000050050F7
:1009B000000400500000FEFF07C0F0FFF0B587B054
:1009C000044614216846FFF71AFC2D4B26680024C4
:1009D0001A6803252B49521C4FF09040B6F1A04FE6
:1009E00006D0294FBE4231D11A60012A15D01CE031
:1009F0001A60012A07D14A6942F080524A614A6965
:100A000002F0805205924A6942F400324A61496913
:100A100001F400310591012110E04A6942F0805251
:100A20004A614A6902F0805205924A6942F40032F2
:100A30004A61496901F4003105911021CDE90015A1
:100A40000294694600F038F807B0F0BD0F488642BE
:100A5000FAD1486940F000504861486900F0005000
:100A60000590486940F4802048614869694600F46F
:100A7000802005900220CDE9000502940448E1E7BA
:100A80003800002000100240000100500004005017
:100A90000004004870B5044600F002F90546601CE9
:100AA00002D004480078044400F0FAF8401BA04249
:100AB000FAD370BD3C0000202DE9F84FDFF8A0B15B
:100AC000002301274FF0030A4FF00F090BF1040E2A
:100AD000BEE000BF07FA03F63440220072D04C6833
:100AE000022C01D0122C12D1DC0800EB840CDCF8B3
:100AF00020405D07ED0E09FA05F824EA0804D1F854
:100B0000108008FA05F848EA0408CCF82080D0F8EC
:100B100000805D0091F804C00AFA05F40CF0030CA3
:100B200028EA04080CFA05FC4CEA080CC0F800C0DE
:100B3000D1F804C0BCF1010F08D0BCF1020F05D000
:100B4000BCF1110F02D0BCF1120F16D1D0F808C0C1
:100B5000D1F80C802CEA040C08FA05F848EA0C08D5
:100B6000C0F80880D0F804C02CEA060C0E79C6F351
:100B700000169E4046EA0C064660C668A6438C688E
:100B8000AC403443C4604C68E40060D5354CA56982
:100B900045F00105A561A46923F0030504F00104F3
:100BA0000094314C2E19B4689D074FEA157C09FA60
:100BB0000CF5AC43B0F1904F05D02C4DA84204D1B8
:100BC00001251CE043E0002519E0294DA84201D190
:100BD000022514E0274DA84201D103250FE0264D40
:100BE000A84201D104250AE0244DA84201D10525DF
:100BF00005E0234DA84201D1062500E0072505FAAE
:100C00000CF52543B560DBF800405D464E68944323
:100C1000F60300D514432C60DEF8004075464E689C
:100C20009443B60300D514432C600D4D08352C6851
:100C30004E689443F60200D514432C60084D0C35E1
:100C40002C684E689443B60200D514432C605B1C9C
:100C50000A681446DA407FF43DAFBDE8F88F000023
:100C60000004014000100240000001400004004860
:100C700000080048000C004800100048001400481C
:100C8000001800480069084000D001207047426900
:100C90004A40426170470AB1816170478162704782
:100CA00001488068704700003C00002090F8412017
:100CB000202A24D190F84020012A20D0012280F857
:100CC0004020242280F841200268136823F00103A9
:100CD00013600268136823F480531360026813687A
:100CE0000B43136001680A6842F001020A60202188
:100CF00080F84110002180F840100846704702201B
:100D0000704790F84120202A22D190F84020012AF3
:100D10001ED0012280F84020242280F84120026861
:100D2000136823F0010313600268136823F47063EF
:100D300043EA0121116001680A6842F001020A6079
:100D4000202180F84110002180F8401008467047AB
:100D50000220704770B5040004D094F841000025CB
:100D600010B106E0012070BD84F84050204600F02C
:100D70007BF9242084F841002068016821F00101FA
:100D800001606068216820F07060086120688168F7
:100D900021F400418160E0680128A06807D040F498
:100DA000044021688860E068022803D006E040F42F
:100DB0000040F6E721684FF4006048602068416811
:100DC000114A114341602068C16821F40041C160AB
:100DD000D4E904010843A16940EA01202168C86000
:100DE000D4E907010843216808602068016841F0E0
:100DF000010101606564202084F84100256384F8C6
:100E00004250002070BD0000008000022DE9F84F24
:100E1000044690F84100DDF828A01F4690468B4616
:100E200020287DD194F84000012879D0012084F851
:100E30004000FFF735FF0646012200901923D10339
:100E4000204601F02FF838BB222084F84100102002
:100E500084F8420000256564C4F8248067856563D2
:100E6000618D3448FF274FF080784FF00079FF29DB
:100E700003D927853A46009032E0618D21850090A4
:100E800033E05946204600F0F7FF32E001F034F835
:100E900018B1606C042848D019E02068416A606A83
:100EA000421C62620170208D401E0004000C2085EF
:100EB000618DA1F1010161851BD1608DC8B15346DF
:100EC000002280212046009600F0ECFF10B10320A4
:100ED000BDE8F88F608DFF2804D927853A46009534
:100EE0004346CEE7608D2085009594F828204B4638
:100EF000C7E7608D3246002851462046C6D101F032
:100F00003FF80028C5D121682020C86121684A68BF
:100F1000094B1A404A6084F8410084F8425000E0CE
:100F200005E084F840500020D2E70120D0E70220FD
:100F3000CEE700000024008000E800FE2DE9F84F15
:100F4000044690F84100DDF828A01F4690468B46E5
:100F500020287CD194F8400001287FD0012084F81B
:100F60004000FFF79DFE0646012200901923D103A1
:100F7000204600F097FF38BB212084F84100102064
:100F800084F8420000256564C4F8248067856563A1
:100F9000618D3348FF274FF080784FF00079FF29AB
:100FA00003D927853A46009031E0618D2185009074
:100FB00032E05946204600F05FFF31E001F007F8CB
:100FC00018B1606C042847D018E0606A411C616267
:100FD000216800788862608D401E6085208D401EEB
:100FE0000004000C20851BD1608DC8B1534600223F
:100FF00080212046009600F055FF10B10320BDE887
:10100000F88F608DFF2804D927853A46009543461E
:10101000CFE7608D2085009594F828204B46C8E7DF
:10102000608D3246002851462046C7D100F0A8FF07
:101030000028C6D120682021C16120684368094A80
:101040001340436084F8411084F8425000E005E00A
:1010500084F840500020D2E70120D0E70220CEE7FC
:101060000020008000E800FEF0B587B0044614219F
:101070006846FFF7C4F81B49206888422FD11A4CF4
:10108000606940F400206061606900F40020059010
:10109000606940F4003060616069122600F400303D
:1010A0000590481503250127CDE90006CDE9027515
:1010B000694604950D48FFF7FFFCA015CDE9000631
:1010C000CDE9027569460495B006FFF7F5FCE069C5
:1010D00040F08040E061E06900F08040059007B09A
:1010E000F0BD0000007800400010024000080048F9
:1010F0000248816802781144816070473C000020FA
:10110000074810B5016841F010010160032000F0AC
:1011100061F8002000F006F800F024F8002010BD6F
:101120000020024070B50D4D04464FF47A712878C6
:10113000B1FBF0F00A490968B1FBF0F000F040FDA6
:1011400048B9102C07D200222146501E00F022F888
:1011500000206C6070BD012070BD00003C000020CC
:10116000480000200A4882B0816941F00101816194
:10117000816901F001010091C16941F08051C161B3
:10118000C06900F080500090072002B000F022B843
:1011900000100240F0B40E4B1B680C46C3F3022350
:1011A000C3F10705042D00D90425191D072901D213
:1011B000002300E0DB1E012606FA05F1491E21404E
:1011C00099409E40761E16403143F0BC01F07CB938
:1011D0000CED00E0064900F0070208684FF6FF0337
:1011E000184040EA0220034A10430860704700009C
:1011F0000CED00E00000FA052DE9F84F0446006808
:101200009F4DC0036FD5E8690026C00008D4E86987
:1012100040F08050E861E869012600F080500090BD
:1012200098480168C90512D40168804641F480716C
:101230000160FFF735FD074605E000BFFFF730FD11
:10124000C01B642835D8D8F80000C005F6D5286A38
:1012500010F4407053D0A18801F4407181424ED007
:10126000286A4FF4803191FAA1F2B2FA82F2970023
:10127000854A4FF00108174420F44070C7F80084F5
:1012800091FAA1F1B1FA81F102EB81010023C1F8D9
:1012900000342862C00732D0FFF702FD074641F252
:1012A000883A4FF0020907E0FFF7FAFCC11B5145ED
:1012B00002D90320BDE8F88F99FAA9F1B1FA81F1BA
:1012C00041F040024846B8EB521F01D12A680CE0B9
:1012D00090FAA0F2B2FA82F242F04002B0EB521F52
:1012E00002D12A6A01E015E06A6A99FAA9F0B0FA17
:1012F00080F000F01F0008FA00F10A42D4D0286AFA
:10130000616820F44070084328621EB1E86920F04B
:101310008050E8612078C00705D0286BA16820F0D4
:101320000300084328632078800705D5286BE1680F
:1013300020F44030084328632078400705D5286B07
:10134000216920F44020084328632078800605D5D1
:10135000286BE16920F010000843286320688003AF
:1013600005D56868616D20F48000084368602078C6
:10137000400605D5286B216A20F020000843286329
:101380002068400305D5286B616A20F040000843BF
:1013900028632078000705D5286B616920F4401088
:1013A000084328632078C00605D5286BA16920F47E
:1013B0004000084328632088800505D56868216BB4
:1013C00020F40000084368602078000605D5E86A2C
:1013D000A16A20F4F8700843E8622088C00505D5AA
:1013E000E86AE16A20F478500843E8622088C00483
:1013F00005D5286B616B20F4807008432863208832
:10140000800405D5286B216C20F400700843286304
:101410002068C00205D5286BA16B20F080700843BE
:1014200028632068800205D5286BE16B20F00070EE
:10143000084328632068400205D5286B616C20F4BE
:101440008060084328632068000205D5286BA16CE2
:1014500020F40060084328632068C00105D5286B8C
:10146000E16C20F40050084328632068800105D512
:10147000286B216D20F4004008432863002019E701
:101480000010024000700040000042422DE9F04789
:101490000F46050069D04A4E306800F00700B84298
:1014A00009D2306820F0070038433060306800F01F
:1014B0000700B84259D12878424C800705D56068AA
:1014C000A96820F0F000084360602878C0073DD08C
:1014D0006968012001290DD0022923D05FF00203A1
:1014E00093FAA3F2B2FA82F242F02002520904D037
:1014F000226803E04FF40033F2E7626A93FAA3F341
:10150000B3FA83F303F01F03984002422DD06068C2
:1015100020F0030008436060FFF7C2FB804641F201
:1015200088390CE04FF00073DAE700BFFFF7B8FB33
:10153000A0EB0801494502D90320BDE8F0876068A7
:10154000696800F00C00B0EB810FEFD1306800F05B
:101550000700B8420BD9306820F0070038433060EC
:10156000306800F00700B84201D00120E5E7287894
:10157000400705D56068E96820F4E06008436060D2
:101580002878000706D56068296920F4605040EA91
:10159000C100606000F01CF86168F02292FAA2F2CB
:1015A00001F0F001B2FA82F2D140074A515CC84022
:1015B000064908600020FFF7B5FD0020BDE70000E8
:1015C000002002400010024030290008480000209E
:1015D000124B10B55968124801F00C02042A1CD0B5
:1015E000082A1AD14FF4701494FAA4F401F470127A
:1015F000B4FA84F4E2400B4CDB6AA25C0F2494FA48
:10160000A4F403F00F03B4FA84F4E340054CC903D7
:101610001034E35CB0FBF3F0504310BD0010024007
:1016200000127A00102900082DE9F84F04007DD03F
:101630002078FA4DC0074FF0010637D0686877046C
:10164000C0F38100012819D06868C0F38100022826
:1016500004D16868C0F3C13002280FD06068B0F5CB
:10166000803F24D010B1B0F5A02F2AD0286820F4F4
:1016700080302860286820F480201BE097FAA7F0CB
:10168000B0FA80F040F02000400901D0286800E066
:10169000686A97FAA7F1B1FA81F101F01F0106FA21
:1016A00001F108424ED060680028C0D04AE02868A6
:1016B00040F480302860606820B3FFF7F1FA80467C
:1016C0000AE0286840F480202860F0E7FFF7E8FA95
:1016D000A0EB0800642873D897FAA7F0B0FA80F05E
:1016E00040F02000400901D0286800E0686A97FABD
:1016F000A7F1B1FA81F101F01F0106FA01F10842E8
:10170000E4D01FE0FFF7CCFA804605E0FFF7C8FA07
:10171000A0EB08006428DED897FAA7F0B0FA80F0B2
:1017200040F02000400902D0286801E0B9E0686A72
:1017300097FAA7F1B1FA81F101F01F0106FA01F160
:101740000842E3D12078DFF8D88280074FF0000A02
:101750004FF002075DD568684FF0F80B10F00C0FE2
:1017600015D06868C0F38100022804D16868C0F30E
:10177000C13001280BD0E068A0B396FAA6F0B0FA09
:1017800080F048F82060FFF78BFA814620E097FA56
:10179000A7F0B0FA80F040F02000400901D028689E
:1017A00000E0686A97FAA7F1B1FA81F101F01F0130
:1017B00006FA01F1084221D0E068012871D11DE04C
:1017C00056E100BFFFF76CFAA0EB09000228A2D88F
:1017D00097FAA7F0B0FA80F040F02000400902D05C
:1017E000286801E016E0686A97FAA7F1B1FA81F17A
:1017F00001F01F0106FA01F10842E3D028689BFAC4
:10180000ABF22169B2FA82F220F0F800914008436D
:10181000286024E096FAA6F1B1FA81F148F821A0F7
:10182000FFF73EFA814605E0FFF73AFAA0EB090020
:101830000228CCD897FAA7F0B0FA80F040F0200048
:10184000400901D0286800E0686A97FAA7F1B1FA68
:1018500081F101F01F0106FA01F10842E4D120787C
:1018600000076AD56069A0B396FAA6F0B0FA80F0D6
:1018700008EB8000C0F88064FFF712FA814605E0AB
:10188000FFF70EFAA0EB09000228A0D897FAA7F0FC
:10189000B0FA80F040F06000B6EB501F02D128682B
:1018A0000CE073E197FAA7F0B0FA80F040F0600026
:1018B000B7EB501F01D1286A00E0686A97FAA7F1D8
:1018C000B1FA81F101F01F0106FA01F21042D7D0FE
:1018D00033E0FFE796FAA6F0B0FA80F008EB80005C
:1018E000C0F880A4FFF7DCF9814605E0FFF7D8F9DE
:1018F000A0EB090002289CD897FAA7F0B0FA80F074
:1019000040F06000B6EB501F01D128680BE097FA59
:10191000A7F0B0FA80F040F06000B7EB501F01D1A3
:10192000286A00E0686A97FAA7F1B1FA81F101F03C
:101930001F0106FA01F21042D8D12078400774D571
:10194000E8694FF00009C00009D4E86940F0805010
:10195000E861E8694FF0010900F0805000903148DB
:101960000168C90512D4016841F480710160FFF774
:1019700097F9834606E000BFFFF792F9A0EB0B0052
:10198000642875D827480068C005F5D5A0680128E7
:101990000AD008B1052811D0286A20F00100286279
:1019A000286A20F0040002E0286A40F00100286262
:1019B000A068C8B3FFF774F983460DE0286A40F0C9
:1019C00004002862F0E700BFFFF76AF9A0EB0B0103
:1019D00041F2883081424BD897FAA7F0B0FA80F0F4
:1019E00040F04000B6EB501F01D128680BE097FA99
:1019F000A7F0B0FA80F040F04000B7EB501F01D1E3
:101A0000286A00E0686A97FAA7F1B1FA81F101F05B
:101A10001F0106FA01F21042D6D035E00010024054
:101A2000000042420070004000E034E0FFF738F967
:101A3000834607E0FFF734F9A0EB0B0141F2883051
:101A4000814215D897FAA7F0B0FA80F040F0400034
:101A5000B6EB501F01D128680CE097FAA7F0B0FA56
:101A600080F040F04000B7EB501F02D1286A01E03F
:101A700089E0686A97FAA7F1B1FA81F101F01F01D4
:101A800006FA01F21042D5D1B9F1000F03D0E8698E
:101A900020F08050E861A06980B36968C1F38101DA
:101AA000022973D04FF080714F000228524609D0AE
:101AB00091FAA1F0B0FA80F048F82020FFF7F0F892
:101AC000044664E091FAA1F0B0FA80F08A46C1467B
:101AD00048F82020FFF7E4F8804605E0FFF7E0F83B
:101AE000A0EB080002284ED897FAA7F0B0FA80F0D1
:101AF00040F02000400902D0286801E05CE0686AFC
:101B000097FAA7F1B1FA81F101F01F0106FA01F18C
:101B10000842E3D1E86A616A20F00F000843E862F6
:101B2000D4E907100843696821F476110843686016
:101B30009AFAAAF0B0FA80F049F82060FFF7B0F8FE
:101B4000044604E0FFF7ACF8001B02281BD897FA04
:101B5000A7F0B0FA80F040F02000400901D02868DA
:101B600000E0686A97FAA7F1B1FA81F101F01F016C
:101B700006FA01F10842E5D01EE000BFFFF790F839
:101B8000001B022803D90320BDE8F88F16E097FA5E
:101B9000A7F0B0FA80F040F02000400901D028689A
:101BA00000E0686A97FAA7F1B1FA81F101F01F012C
:101BB00006FA01F10842E1D10020E5E70120E3E760
:101BC00010B5401EB0F1807F01D3012010BD4FF051
:101BD000E02460610F21601700F076FC0020A06116
:101BE00007202061002010BD30B590F83C20012A6C
:101BF00022D0012280F83C200268536894680F4D7F
:101C0000AA4205D00E4DAA4202D00E4DAA4203D1DF
:101C100023F470054B682B4323F070050B6889682B
:101C20002B4324F08004214353600268916000211B
:101C300080F83C10084630BD022030BD002C014029
:101C4000003401400050014010B5040003D094F866
:101C50003D0010B107E0012010BD002084F83C00D9
:101C6000204600F00DF8022084F83D00211D206878
:101C700000F0ACFC012084F83D00002010BD000005
:101C800008B500680649884208D10648816941F4D0
:101C900000518161806900F40050009008BD00008F
:101CA000003401400010024070B5044690F83C003A
:101CB000012817D0012584F83C50022084F83D000B
:101CC00022689068364E304020F47F40906008686B
:101CD000502839D00DDC20285BD005DC98B31028C3
:101CE00043D153E0022070BD302855D040283CD16C
:101CF00041E0602830D070280CD0B0F5805F03D070
:101D0000B0F5005F31D112E020688168244A70325A
:101D1000114016E0CB68D1E90121206800F0B8FC41
:101D200021688868304040F0770088601DE0CB680B
:101D3000D1E90121206800F0ABFC2068816841F402
:101D40008041816011E01EE0CA684968206800F0A7
:101D5000B1FC5021206806E0CA684968206800F09C
:101D6000BAFC6021206800F09DFC84F83D50002002
:101D700084F83C0070BDCA684968206800F09AFC8D
:101D800040212068EFE700212068ECE7102120685F
:101D9000E9E720212068E6E730212068E3E700003A
:101DA00088FFFEFFFEE701688A69D243920701D4EB
:101DB00000228A6200688169C943C90703D081692A
:101DC00041F00101816170472DE9F041044600684E
:101DD00090460E468069C043C0062ED400252027B9
:101DE00020688069C043800611D5701CF8D02EB1E0
:101DF000FEF756FFA0EB0800B042F1D984F841701D
:101E000084F8425084F840500320BDE8F0812168F6
:101E10001020C8612068C7612046FFF7C4FF54F84E
:101E2000440B4168064A11404160042044F82009EF
:101E30006777A57725770120E7E70020E5E7000031
:101E400000E800FE7CB515468DF804000A200E4619
:101E5000D0240090012301AA21460648FFF76EF81E
:101E6000642000902B46324621460248FEF7CEFF02
:101E70007CBD00004C000020F0B50568059C68683A
:101E80004FF48066064FC1F3090106EA545641EA51
:101E900002413E431943B043214308436860F0BD0B
:101EA000FF63FF032DE9F0411D4617460E46044629
:101EB000DDF8188013E0681C11D02DB1FEF7F0FE9C
:101EC000A0EB0800A8420AD9202084F84100002095
:101ED00084F8420084F840000320BDE8F0812068C7
:101EE000806936EA000004D00020B842E3D0002028
:101EF000F3E70120F9E700002DE9F04100269046C4
:101F00000F460446202532E0424639462046FFF778
:101F10005BFF10B10120BDE8F08120688069C043FB
:101F2000800613D420688169C943490701D4218DF3
:101F300011BBC56154F8440B4168104A114041601F
:101F400044F820696577A6772677E3E72FB1FEF797
:101F5000A7FEA0EB0800B84209D954F8440F40F09E
:101F6000200044F80409657026700320D3E7206838
:101F70008069C0434007C7D40020CCE700E800FEDA
:101F800070B516460D4604461AE0324629462046EC
:101F9000FFF71AFF08B1012070BD25B1FEF780FEE2
:101FA000801BA8420CD954F8440F40F0200044F89C
:101FB0000409202060700020A0702070032070BDF4
:101FC00020688069C0438006DFD4002070BD70B5F2
:101FD00016460D4604461CE0324629462046FFF7C9
:101FE000F3FE08B1012070BD681C12D025B1FEF7C8
:101FF00057FE801BA8420CD954F8440F40F0200033
:1020000044F80409202060700020A0702070032094
:1020100070BD20688069C0438007DDD4002070BD9A
:102020001CB502238DF8040064208DF80510009083
:10203000D02101AA0148FEF781FF1CBD4C00002001
:1020400070B5044680216B20FFF7EAFF6420FEF79D
:1020500021FD20782179402200F0070002EA811159
:1020600001436B20FFF7DCFF6420FEF713FDE078EF
:1020700000F007011A20FFF7D3FF6078182505EA62
:10208000C0011B20FFF7CCFFA07805EAC0011C208F
:10209000FFF7C6FF042000F0E9F8A1789FED150ACC
:1020A000154831B1012907D0022908D003290AD1E6
:1020B00012E080ED030A06E0DFED100A01E0DFED3B
:1020C000100AC0ED030A617849B101290AD002293A
:1020D0000BD003290DD10AE0DFED0A0AF1E79FEDED
:1020E0000A0A04E09FED090A01E09FED090A80ED6C
:1020F000040A70BD00007A3D000000200000FA3D97
:1021000000007A3E0000FA3E0000FA3B00007A3CF4
:102110000000FA3C10B586B0044601223A200DF1C9
:102120000101FFF78FFE9DF80100002834D0062240
:1021300001A93B20FFF786FE9DF805009DF80410DD
:10214000062200EB012020809DF807009DF8061074
:1021500000EB012060809DF809009DF8081000EB5D
:102160000120A08003A94320FFF76CFE9DF80D001D
:102170009DF80C1000EB0121084801809DF80F101C
:102180009DF80E2001EB022141809DF811109DF871
:10219000102001EB0221818006B010BD1400002048
:1021A0001CB504466846FFF7B5FFBDF9000000EE18
:1021B000100A0F48F8EEC00A90ED030A60EE800A9C
:1021C000C4ED000ABDF9020000EE900AF8EEE00A44
:1021D00060EE800AC4ED010ABDF9040000EE900A29
:1021E000F8EEE00A20EE800A84ED020A1CBD000031
:1021F0000000002003490A8802804A8842808988BA
:1022000081807047140000200CB503466846FFF734
:10221000F1FFBDF9000000EE100A0F48F8EEC00A09
:1022200090ED040A60EE800AC3ED000ABDF90200D9
:1022300000EE900AF8EEE00A60EE800AC3ED010AB3
:10224000BDF9040000EE900AF8EEE00A20EE800AE4
:1022500083ED020A0CBD00000000002001464C2264
:102260000148FDF7B3BF00004C00002001461920D3
:10227000FFF7D6BE30B589B0002406940794182124
:1022800068460894FDF7BBFF12484FF0A0410125B6
:10229000C0E9001484600461C4614462C0E90B5465
:1022A000C460056204214463C0E905148463FEF739
:1022B0004BFA06A907480694FDF7F2FF0095039430
:1022C000CDE901540494694602480594FEF772F87A
:1022D00009B030BD9800002030B587B0182168469D
:1022E000FDF78DFF114810490024C0E900148460F7
:1022F0000461C46101254462C0E90B54C4600562F5
:1023000004214463C0E905148463FEF71DFA0095B7
:102310000394CDE901540494694604480594FEF7FA
:1023200049F807B030BD000000010050EC0000206B
:1023300030B589B0002406940794182168460894A3
:10234000FDF75DFF134812490125C0E900148460C0
:102350000461C4614462C0E90B54C4600562042195
:102360004463C0E905148463FEF7EEF906A9094841
:102370000694FDF795FF00950394CDE9015404946C
:10238000694604480594FEF715F809B030BD000011
:10239000000400504001002030B587B01421684689
:1023A000FDF72DFF1E48416941F40031416141694B
:1023B00001F400310591416941F480214161416995
:1023C00001F480210591416941F400214161406996
:1023D000144D00F400204FF4E04405900022214603
:1023E0002846FEF758FC0120CDE900400024029465
:1023F000694628460394FEF75FFB6801CDE90004B7
:10240000694628460294FEF757FB4020CDE90004B8
:10241000694605480294FEF74FFB07B030BD000047
:102420000010024000040048000800480E4810B5A3
:102430000C4901600D49416000210122C0E90212EE
:10244000016141618161C1610162FEF783FC00218C
:102450000548FEF72BFCBDE8104000210248FEF7BE
:1024600050BC000000780040940100200E090020BC
:1024700010B588B00024124805940694039404947F
:10248000009401940D490294C0E900148460C46072
:10249000046144618461FFF7D7FB4FF480500390DF
:1024A00003A90748FFF700FC00940194694604481B
:1024B0000294FFF799FB08B010BD00000034014002
:1024C000E0010020FEE770470907090E002806DA40
:1024D00000F00F0000F1E02080F8141D704700F1BB
:1024E000E02080F80014704770477047FEF700BE88
:1024F00030B5A5B0282116A8FDF781FE142120A82B
:10250000FDF77DFE58216846FDF779FE0120199000
:10251000102002251A90C002CDE91C504FF4E010A3
:102520000024CDE91E04169516A8FFF77DF80F20AC
:10253000CDE920056802CDE92240022120A824949B
:10254000FEF7A4FF06480090E8010A9040011094AD
:102550000B9009946846FEF74FFE25B030BD000091
:10256000802104001448016841F47001016013489F
:10257000016841F0010101604168114A1140416068
:102580000168104A11400160016821F48021016056
:10259000416821F4FE014160C16A21F00F01C1626E
:1025A000016B094A11400163002181600249C003A7
:1025B000803908607047000088ED00E0001002409C
:1025C0000CC07FF8FFFFF6FECCFC00FF2DE9F047C2
:1025D0000268274B274E284F284C294D4FF0804A40
:1025E000984209D0504507D0B04205D0B84203D038
:1025F000A04201D0A84204D122F0700C4A6842EAFD
:102600000C02DFF880C0DFF88080DFF8809098420D
:102610000FD050450DD0B0420BD0B84209D0A042E7
:1026200007D0604505D0404503D0484501D0A842B9
:1026300003D122F44076CA6832434E6922F0800208
:10264000324302608A68C2620A688262984209D094
:10265000A04207D0604505D0404503D0484501D091
:10266000A84201D10969016301214161BDE8F087F8
:10267000002C0140000400400008004000340140EC
:10268000005001400040014000440140004801402A
:1026900010B5846842EA032224F47F440A432243AB
:1026A000826010BD826822F070020A4342F0070186
:1026B0008160704710B5036A046A24F00104046263
:1026C000846924F0F00444EA021423F00A020A4365
:1026D0008461026210BD10B5036A23F01003036227
:1026E0008369046A23F4704343EA023224F0A003AE
:1026F00043EA01118261016210BDFEE702E008C8F1
:10270000121F08C1002AFAD170477047002001E06B
:1027100001C1121F002AFBD1704700001CB5FEF753
:10272000EFFCFFF7E5FEFFF737FEFFF77FFEFFF751
:10273000A1FDFFF7D1FDFFF7FBFDFFF799FE6C4808
:10274000FFF78CFD4FF0010800258DF802808DF811
:1027500000508DF803808DF801808DF80450684694
:10276000FFF76EFCDFF88CB1DFF88CA1DFF88C91FD
:102770004FF40047ABF110045E48FFF7CBFC5D4817
:10278000801DFFF737FD5A488C30FFF709FD584888
:102790009830FFF739FD564840219830564690ED65
:1027A000010A84ED020ABBF9000000EE100A50464F
:1027B000B8EEC00A84ED030AFEF764FAA071402166
:1027C0003046FEF75FFA68B1207958B140213046B3
:1027D000FEF758FA90B14FF400514846FEF757FA09
:1027E00025710BE040213046FEF74CFA30B940210C
:1027F0003046FEF747FA08B984F8048039464E4659
:102800004846FEF73FFAE07139463046FEF73AFA9D
:1028100068B1607958B139463046FEF733FA90B165
:102820004FF480413046FEF732FA65710BE03946CD
:102830003046FEF727FA30B939463046FEF722FA1D
:1028400008B984F805802E49E068884224DD6420B8
:10285000FEF720F92B49A068884201DD84F800804A
:102860006420FEF717F92078012806D12549A068D1
:10287000884202DA84F8018025706420FEF70AF9A4
:10288000607801287FF478AF65706420FEF702F964
:1028900000224FF4005126E01B4988427FF66CAFBE
:1028A0006420FEF7F7F81949A068884201D984F836
:1028B00002806420FEF7EEF8A078012806D11349C3
:1028C000A068884202D284F80380A5706420FEF7D5
:1028D000E1F8E0780128D5D1E570C820FEF7DAF8F4
:1028E00000224FF480413046FEF7D5F944E700005E
:1028F000940100202C00002000080048000400483B
:1029000000009644000010410000C8C3000010C140
:1029100002030405060708090A0B0C0D0E0F101020
:102920000102030405060708090A0B0C0D0E0F101F
:10293000000000000000000001020304060708096F
:1029400060290008000000204C000000FC26000860
:10295000AC2900084C000020EC0500000C27000802
:102960000000000000000000000000000000000067
:102970000000000000000000000000000000000057
:102980000000000000000000000000000000000047
:102990000000000000000000000000000100000036
:0C29A000100000000000000000127A008F
:040000050800019559
:00000001FF
